{"abi":[{"type":"constructor","inputs":[{"name":"_g$","type":"address","internalType":"address"},{"name":"_identity","type":"address","internalType":"address"}],"stateMutability":"nonpayable"},{"type":"function","name":"DAILY_CAP","inputs":[],"outputs":[{"name":"","type":"uint256","internalType":"uint256"}],"stateMutability":"view"},{"type":"function","name":"G$","inputs":[],"outputs":[{"name":"","type":"address","internalType":"contract IERC20"}],"stateMutability":"view"},{"type":"function","name":"IDENTITY","inputs":[],"outputs":[{"name":"","type":"address","internalType":"contract IIdentity"}],"stateMutability":"view"},{"type":"function","name":"STREAK_BONUS","inputs":[],"outputs":[{"name":"","type":"uint256","internalType":"uint256"}],"stateMutability":"view"},{"type":"function","name":"TIER1_REWARD","inputs":[],"outputs":[{"name":"","type":"uint256","internalType":"uint256"}],"stateMutability":"view"},{"type":"function","name":"TIER2_REWARD","inputs":[],"outputs":[{"name":"","type":"uint256","internalType":"uint256"}],"stateMutability":"view"},{"type":"function","name":"TIER3_REWARD","inputs":[],"outputs":[{"name":"","type":"uint256","internalType":"uint256"}],"stateMutability":"view"},{"type":"function","name":"claimReward","inputs":[{"name":"score","type":"uint64","internalType":"uint64"},{"name":"tier","type":"uint8","internalType":"uint8"}],"outputs":[],"stateMutability":"nonpayable"},{"type":"function","name":"dailyDistributed","inputs":[{"name":"","type":"uint256","internalType":"uint256"}],"outputs":[{"name":"","type":"uint256","internalType":"uint256"}],"stateMutability":"view"},{"type":"function","name":"entries","inputs":[{"name":"","type":"address","internalType":"address"},{"name":"","type":"uint256","internalType":"uint256"}],"outputs":[{"name":"score","type":"uint64","internalType":"uint64"},{"name":"tier","type":"uint8","internalType":"uint8"},{"name":"streak","type":"uint32","internalType":"uint32"},{"name":"timestamp","type":"uint64","internalType":"uint64"}],"stateMutability":"view"},{"type":"function","name":"fundPool","inputs":[{"name":"amount","type":"uint256","internalType":"uint256"}],"outputs":[],"stateMutability":"nonpayable"},{"type":"function","name":"getEntry","inputs":[{"name":"player","type":"address","internalType":"address"},{"name":"day","type":"uint256","internalType":"uint256"}],"outputs":[{"name":"","type":"tuple","internalType":"struct WordZapper.Entry","components":[{"name":"score","type":"uint64","internalType":"uint64"},{"name":"tier","type":"uint8","internalType":"uint8"},{"name":"streak","type":"uint32","internalType":"uint32"},{"name":"timestamp","type":"uint64","internalType":"uint64"}]}],"stateMutability":"view"},{"type":"function","name":"hasPlayedToday","inputs":[{"name":"player","type":"address","internalType":"address"}],"outputs":[{"name":"","type":"bool","internalType":"bool"}],"stateMutability":"view"},{"type":"function","name":"isCitizen","inputs":[{"name":"player","type":"address","internalType":"address"}],"outputs":[{"name":"","type":"bool","internalType":"bool"}],"stateMutability":"view"},{"type":"function","name":"owner","inputs":[],"outputs":[{"name":"","type":"address","internalType":"address"}],"stateMutability":"view"},{"type":"function","name":"poolBalance","inputs":[],"outputs":[{"name":"","type":"uint256","internalType":"uint256"}],"stateMutability":"view"},{"type":"function","name":"remainingTodayCap","inputs":[],"outputs":[{"name":"","type":"uint256","internalType":"uint256"}],"stateMutability":"view"},{"type":"function","name":"today","inputs":[],"outputs":[{"name":"","type":"uint256","internalType":"uint256"}],"stateMutability":"view"},{"type":"function","name":"transferOwnership","inputs":[{"name":"newOwner","type":"address","internalType":"address"}],"outputs":[],"stateMutability":"nonpayable"},{"type":"function","name":"withdraw","inputs":[{"name":"to","type":"address","internalType":"address"},{"name":"amount","type":"uint256","internalType":"uint256"}],"outputs":[],"stateMutability":"nonpayable"},{"type":"event","name":"PoolFunded","inputs":[{"name":"funder","type":"address","indexed":true,"internalType":"address"},{"name":"amount","type":"uint256","indexed":false,"internalType":"uint256"}],"anonymous":false},{"type":"event","name":"RewardClaimed","inputs":[{"name":"player","type":"address","indexed":true,"internalType":"address"},{"name":"day","type":"uint256","indexed":true,"internalType":"uint256"},{"name":"score","type":"uint256","indexed":false,"internalType":"uint256"},{"name":"tier","type":"uint8","indexed":false,"internalType":"uint8"},{"name":"streak","type":"uint32","indexed":false,"internalType":"uint32"},{"name":"reward","type":"uint256","indexed":false,"internalType":"uint256"}],"anonymous":false},{"type":"event","name":"Withdrawn","inputs":[{"name":"to","type":"address","indexed":true,"internalType":"address"},{"name":"amount","type":"uint256","indexed":false,"internalType":"uint256"}],"anonymous":false},{"type":"error","name":"AlreadyPlayed","inputs":[]},{"type":"error","name":"DailyCapReached","inputs":[]},{"type":"error","name":"InsufficientPool","inputs":[]},{"type":"error","name":"InvalidTier","inputs":[]},{"type":"error","name":"NotCitizen","inputs":[]},{"type":"error","name":"Unauthorized","inputs":[]}],"bytecode":{"object":"0x60c060405234801562000010575f80fd5b5060405162001cca38038062001cca83398181016040528101906200003691906200014a565b8173ffffffffffffffffffffffffffffffffffffffff1660808173ffffffffffffffffffffffffffffffffffffffff16815250508073ffffffffffffffffffffffffffffffffffffffff1660a08173ffffffffffffffffffffffffffffffffffffffff1681525050335f806101000a81548173ffffffffffffffffffffffffffffffffffffffff021916908373ffffffffffffffffffffffffffffffffffffffff16021790555050506200018f565b5f80fd5b5f73ffffffffffffffffffffffffffffffffffffffff82169050919050565b5f6200011482620000e9565b9050919050565b620001268162000108565b811462000131575f80fd5b50565b5f8151905062000144816200011b565b92915050565b5f8060408385031215620001635762000162620000e5565b5b5f620001728582860162000134565b9250506020620001858582860162000134565b9150509250929050565b60805160a051611ae8620001e25f395f81816103dd0152818161056a0152610f4601525f818161040d015281816104cd015281816107d0015281816109f501528181610d4e015261106a0152611ae85ff3fe608060405234801561000f575f80fd5b506004361061012a575f3560e01c8063bcf64475116100ab578063da3a5f721161006f578063da3a5f7214610339578063f2fde38b14610355578063f3caad0314610371578063f3fef3a3146103a1578063fc22c2fd146103bd5761012a565b8063bcf644751461027f578063bff240fa1461029d578063c0ed5a98146102bb578063cf412dec146102eb578063d8ce1710146103095761012a565b806396365d44116100f257806396365d44146101d95780639a64c1fe146101f75780639e1746af14610213578063b74e452b14610231578063b8a740e01461024f5761012a565b8063150c4aea1461012e578063158860931461014c5780633975522b1461016a57806353b65d40146101885780638da5cb5b146101bb575b5f80fd5b6101366103db565b6040516101439190611389565b60405180910390f35b6101546103ff565b60405161016191906113ba565b60405180910390f35b61017261040b565b60405161017f91906113f3565b60405180910390f35b6101a2600480360381019061019d9190611475565b61042f565b6040516101b2949392919061150e565b60405180910390f35b6101c36104a7565b6040516101d09190611560565b60405180910390f35b6101e16104ca565b6040516101ee91906113ba565b60405180910390f35b610211600480360381019061020c91906115cd565b610568565b005b61021b610b2d565b60405161022891906113ba565b60405180910390f35b610239610b7d565b60405161024691906113ba565b60405180910390f35b61026960048036038101906102649190611475565b610b8b565b604051610276919061168b565b60405180910390f35b610287610c94565b60405161029491906113ba565b60405180910390f35b6102a5610c9f565b6040516102b291906113ba565b60405180910390f35b6102d560048036038101906102d091906116a4565b610cac565b6040516102e291906116e9565b60405180910390f35b6102f3610d2b565b60405161030091906113ba565b60405180910390f35b610323600480360381019061031e9190611702565b610d36565b60405161033091906113ba565b60405180910390f35b610353600480360381019061034e9190611702565b610d4b565b005b61036f600480360381019061036a91906116a4565b610e7d565b005b61038b600480360381019061038691906116a4565b610f43565b60405161039891906116e9565b60405180910390f35b6103bb60048036038101906103b69190611475565b610fe3565b005b6103c5611198565b6040516103d291906113ba565b60405180910390f35b7f000000000000000000000000000000000000000000000000000000000000000081565b6701aa535d3d0c000081565b7f000000000000000000000000000000000000000000000000000000000000000081565b6001602052815f5260405f20602052805f5260405f205f9150915050805f015f9054906101000a900467ffffffffffffffff1690805f0160089054906101000a900460ff1690805f0160099054906101000a900463ffffffff1690805f01600d9054906101000a900467ffffffffffffffff16905084565b5f8054906101000a900473ffffffffffffffffffffffffffffffffffffffff1681565b5f7f000000000000000000000000000000000000000000000000000000000000000073ffffffffffffffffffffffffffffffffffffffff166370a08231306040518263ffffffff1660e01b81526004016105249190611560565b602060405180830381865afa15801561053f573d5f803e3d5ffd5b505050506040513d601f19601f820116820180604052508101906105639190611741565b905090565b7f000000000000000000000000000000000000000000000000000000000000000073ffffffffffffffffffffffffffffffffffffffff16633af32abf336040518263ffffffff1660e01b81526004016105c19190611560565b602060405180830381865afa1580156105dc573d5f803e3d5ffd5b505050506040513d601f19601f820116820180604052508101906106009190611796565b610636576040517f62d07c3a00000000000000000000000000000000000000000000000000000000815260040160405180910390fd5b5f61063f6111a4565b90505f60015f3373ffffffffffffffffffffffffffffffffffffffff1673ffffffffffffffffffffffffffffffffffffffff1681526020019081526020015f205f8381526020019081526020015f205f01600d9054906101000a900467ffffffffffffffff1667ffffffffffffffff16146106e6576040517f5264574600000000000000000000000000000000000000000000000000000000815260040160405180910390fd5b5f8260ff1614806106fa575060038260ff16115b15610731576040517fe142361700000000000000000000000000000000000000000000000000000000815260040160405180910390fd5b5f61073b836111b9565b90505f6107483384611200565b905060038163ffffffff161061076e57666a94d74f4300008261076b91906117ee565b91505b6801158e460913d000008260025f8681526020019081526020015f205461079591906117ee565b11156107cd576040517fa17f846700000000000000000000000000000000000000000000000000000000815260040160405180910390fd5b817f000000000000000000000000000000000000000000000000000000000000000073ffffffffffffffffffffffffffffffffffffffff166370a08231306040518263ffffffff1660e01b81526004016108279190611560565b602060405180830381865afa158015610842573d5f803e3d5ffd5b505050506040513d601f19601f820116820180604052508101906108669190611741565b101561089e576040517f785eab3700000000000000000000000000000000000000000000000000000000815260040160405180910390fd5b60405180608001604052808667ffffffffffffffff1681526020018560ff1681526020018263ffffffff1681526020014267ffffffffffffffff1681525060015f3373ffffffffffffffffffffffffffffffffffffffff1673ffffffffffffffffffffffffffffffffffffffff1681526020019081526020015f205f8581526020019081526020015f205f820151815f015f6101000a81548167ffffffffffffffff021916908367ffffffffffffffff1602179055506020820151815f0160086101000a81548160ff021916908360ff1602179055506040820151815f0160096101000a81548163ffffffff021916908363ffffffff1602179055506060820151815f01600d6101000a81548167ffffffffffffffff021916908367ffffffffffffffff1602179055509050508160025f8581526020019081526020015f205f8282546109eb91906117ee565b925050819055505f7f000000000000000000000000000000000000000000000000000000000000000073ffffffffffffffffffffffffffffffffffffffff1663a9059cbb33856040518363ffffffff1660e01b8152600401610a4e929190611821565b6020604051808303815f875af1158015610a6a573d5f803e3d5ffd5b505050506040513d601f19601f82011682018060405250810190610a8e9190611796565b905080610ad0576040517f08c379a0000000000000000000000000000000000000000000000000000000008152600401610ac7906118a2565b60405180910390fd5b833373ffffffffffffffffffffffffffffffffffffffff167f7a6ea3aa468aa38b3d017b9f04fbc5e20eb3b9149803021d0d3d20456a2c5c3e88888688604051610b1d94939291906118f0565b60405180910390a3505050505050565b5f8060025f610b3a6111a4565b81526020019081526020015f205490506801158e460913d00000811015610b7557806801158e460913d00000610b709190611933565b610b77565b5f5b91505090565b5f610b866111a4565b905090565b610b936112ce565b60015f8473ffffffffffffffffffffffffffffffffffffffff1673ffffffffffffffffffffffffffffffffffffffff1681526020019081526020015f205f8381526020019081526020015f206040518060800160405290815f82015f9054906101000a900467ffffffffffffffff1667ffffffffffffffff1667ffffffffffffffff1681526020015f820160089054906101000a900460ff1660ff1660ff1681526020015f820160099054906101000a900463ffffffff1663ffffffff1663ffffffff1681526020015f8201600d9054906101000a900467ffffffffffffffff1667ffffffffffffffff1667ffffffffffffffff1681525050905092915050565b666a94d74f43000081565b6801158e460913d0000081565b5f8060015f8473ffffffffffffffffffffffffffffffffffffffff1673ffffffffffffffffffffffffffffffffffffffff1681526020019081526020015f205f610cf46111a4565b81526020019081526020015f205f01600d9054906101000a900467ffffffffffffffff1667ffffffffffffffff1614159050919050565b66b1a2bc2ec5000081565b6002602052805f5260405f205f915090505481565b5f7f000000000000000000000000000000000000000000000000000000000000000073ffffffffffffffffffffffffffffffffffffffff166323b872dd3330856040518463ffffffff1660e01b8152600401610da993929190611966565b6020604051808303815f875af1158015610dc5573d5f803e3d5ffd5b505050506040513d601f19601f82011682018060405250810190610de99190611796565b905080610e2b576040517f08c379a0000000000000000000000000000000000000000000000000000000008152600401610e22906119e5565b60405180910390fd5b3373ffffffffffffffffffffffffffffffffffffffff167f32173d8e51cec3a6fe484b7a1c3febe760cdf96e03d4cca36a43563a4333e83883604051610e7191906113ba565b60405180910390a25050565b5f8054906101000a900473ffffffffffffffffffffffffffffffffffffffff1673ffffffffffffffffffffffffffffffffffffffff163373ffffffffffffffffffffffffffffffffffffffff1614610f01576040517f82b4290000000000000000000000000000000000000000000000000000000000815260040160405180910390fd5b805f806101000a81548173ffffffffffffffffffffffffffffffffffffffff021916908373ffffffffffffffffffffffffffffffffffffffff16021790555050565b5f7f000000000000000000000000000000000000000000000000000000000000000073ffffffffffffffffffffffffffffffffffffffff16633af32abf836040518263ffffffff1660e01b8152600401610f9d9190611560565b602060405180830381865afa158015610fb8573d5f803e3d5ffd5b505050506040513d601f19601f82011682018060405250810190610fdc9190611796565b9050919050565b5f8054906101000a900473ffffffffffffffffffffffffffffffffffffffff1673ffffffffffffffffffffffffffffffffffffffff163373ffffffffffffffffffffffffffffffffffffffff1614611067576040517f82b4290000000000000000000000000000000000000000000000000000000000815260040160405180910390fd5b5f7f000000000000000000000000000000000000000000000000000000000000000073ffffffffffffffffffffffffffffffffffffffff1663a9059cbb84846040518363ffffffff1660e01b81526004016110c3929190611821565b6020604051808303815f875af11580156110df573d5f803e3d5ffd5b505050506040513d601f19601f820116820180604052508101906111039190611796565b905080611145576040517f08c379a000000000000000000000000000000000000000000000000000000000815260040161113c906118a2565b60405180910390fd5b8273ffffffffffffffffffffffffffffffffffffffff167f7084f5476618d8e60b11ef0d7d3f06914655adb8793e28ff7f018d4c76d505d58360405161118b91906113ba565b60405180910390a2505050565b6702c68af0bb14000081565b5f62015180426111b49190611a30565b905090565b5f60038260ff16036111d5576702c68af0bb14000090506111fb565b60028260ff16036111f0576701aa535d3d0c000090506111fb565b66b1a2bc2ec5000090505b919050565b5f80600190505f6001846112149190611933565b90505b601e8263ffffffff1610156112c3575f60015f8773ffffffffffffffffffffffffffffffffffffffff1673ffffffffffffffffffffffffffffffffffffffff1681526020019081526020015f205f8381526020019081526020015f205f01600d9054906101000a900467ffffffffffffffff1667ffffffffffffffff1603156112c35781806112a590611a60565b9250505f8103156112c35780806112bb90611a8b565b915050611217565b508091505092915050565b60405180608001604052805f67ffffffffffffffff1681526020015f60ff1681526020015f63ffffffff1681526020015f67ffffffffffffffff1681525090565b5f73ffffffffffffffffffffffffffffffffffffffff82169050919050565b5f819050919050565b5f61135161134c6113478461130f565b61132e565b61130f565b9050919050565b5f61136282611337565b9050919050565b5f61137382611358565b9050919050565b61138381611369565b82525050565b5f60208201905061139c5f83018461137a565b92915050565b5f819050919050565b6113b4816113a2565b82525050565b5f6020820190506113cd5f8301846113ab565b92915050565b5f6113dd82611358565b9050919050565b6113ed816113d3565b82525050565b5f6020820190506114065f8301846113e4565b92915050565b5f80fd5b5f61141a8261130f565b9050919050565b61142a81611410565b8114611434575f80fd5b50565b5f8135905061144581611421565b92915050565b611454816113a2565b811461145e575f80fd5b50565b5f8135905061146f8161144b565b92915050565b5f806040838503121561148b5761148a61140c565b5b5f61149885828601611437565b92505060206114a985828601611461565b9150509250929050565b5f67ffffffffffffffff82169050919050565b6114cf816114b3565b82525050565b5f60ff82169050919050565b6114ea816114d5565b82525050565b5f63ffffffff82169050919050565b611508816114f0565b82525050565b5f6080820190506115215f8301876114c6565b61152e60208301866114e1565b61153b60408301856114ff565b61154860608301846114c6565b95945050505050565b61155a81611410565b82525050565b5f6020820190506115735f830184611551565b92915050565b611582816114b3565b811461158c575f80fd5b50565b5f8135905061159d81611579565b92915050565b6115ac816114d5565b81146115b6575f80fd5b50565b5f813590506115c7816115a3565b92915050565b5f80604083850312156115e3576115e261140c565b5b5f6115f08582860161158f565b9250506020611601858286016115b9565b9150509250929050565b611614816114b3565b82525050565b611623816114d5565b82525050565b611632816114f0565b82525050565b608082015f82015161164c5f85018261160b565b50602082015161165f602085018261161a565b5060408201516116726040850182611629565b506060820151611685606085018261160b565b50505050565b5f60808201905061169e5f830184611638565b92915050565b5f602082840312156116b9576116b861140c565b5b5f6116c684828501611437565b91505092915050565b5f8115159050919050565b6116e3816116cf565b82525050565b5f6020820190506116fc5f8301846116da565b92915050565b5f602082840312156117175761171661140c565b5b5f61172484828501611461565b91505092915050565b5f8151905061173b8161144b565b92915050565b5f602082840312156117565761175561140c565b5b5f6117638482850161172d565b91505092915050565b611775816116cf565b811461177f575f80fd5b50565b5f815190506117908161176c565b92915050565b5f602082840312156117ab576117aa61140c565b5b5f6117b884828501611782565b91505092915050565b7f4e487b71000000000000000000000000000000000000000000000000000000005f52601160045260245ffd5b5f6117f8826113a2565b9150611803836113a2565b925082820190508082111561181b5761181a6117c1565b5b92915050565b5f6040820190506118345f830185611551565b61184160208301846113ab565b9392505050565b5f82825260208201905092915050565b7f5472616e73666572206661696c656400000000000000000000000000000000005f82015250565b5f61188c600f83611848565b915061189782611858565b602082019050919050565b5f6020820190508181035f8301526118b981611880565b9050919050565b5f6118da6118d56118d0846114b3565b61132e565b6113a2565b9050919050565b6118ea816118c0565b82525050565b5f6080820190506119035f8301876118e1565b61191060208301866114e1565b61191d60408301856114ff565b61192a60608301846113ab565b95945050505050565b5f61193d826113a2565b9150611948836113a2565b92508282039050818111156119605761195f6117c1565b5b92915050565b5f6060820190506119795f830186611551565b6119866020830185611551565b61199360408301846113ab565b949350505050565b7f5472616e7366657246726f6d206661696c6564000000000000000000000000005f82015250565b5f6119cf601383611848565b91506119da8261199b565b602082019050919050565b5f6020820190508181035f8301526119fc816119c3565b9050919050565b7f4e487b71000000000000000000000000000000000000000000000000000000005f52601260045260245ffd5b5f611a3a826113a2565b9150611a45836113a2565b925082611a5557611a54611a03565b5b828204905092915050565b5f611a6a826114f0565b915063ffffffff8203611a8057611a7f6117c1565b5b600182019050919050565b5f611a95826113a2565b91505f8203611aa757611aa66117c1565b5b60018203905091905056fea26469706673582212202cf923aa91918a19c56386d5b921da1958c47cb93747bf0095485130978d55e464736f6c63430008140033","linkReferences":{}},"methodIdentifiers":{"DAILY_CAP()":"bff240fa","G$()":"3975522b","IDENTITY()":"150c4aea","STREAK_BONUS()":"bcf64475","TIER1_REWARD()":"cf412dec","TIER2_REWARD()":"15886093","TIER3_REWARD()":"fc22c2fd","claimReward(uint64,uint8)":"9a64c1fe","dailyDistributed(uint256)":"d8ce1710","entries(address,uint256)":"53b65d40","fundPool(uint256)":"da3a5f72","getEntry(address,uint256)":"b8a740e0","hasPlayedToday(address)":"c0ed5a98","isCitizen(address)":"f3caad03","owner()":"8da5cb5b","poolBalance()":"96365d44","remainingTodayCap()":"9e1746af","today()":"b74e452b","transferOwnership(address)":"f2fde38b","withdraw(address,uint256)":"f3fef3a3"},"id":0}